:0400000007EF00F016
:0A000800718258ED08F039EF09F09D
:100600000077726974652076657269667920666123
:10061000696C2C2077726974653D253032782C2006
:10062000726561643D253032780A00426C616E6B00
:1006300020636865636B206661696C20617420616A
:100640006464726573732000777269746520636FE8
:100650006D706C65746564202620766572696669C4
:1006600065640A0050617373656420626C616E6B2F
:1006700020636865636B0A00577269746520616264
:100680006F727465640A00436865636B2061626F12
:10069000727465640A00526561642061626F7274ED
:1006A00065640A00307825303478203D20003078A9
:1006B000253032780A00253034783A20002530324F
:0306C000780000BF
:1006C4002E50D96EDA6ADFCFF6FF060EF76E0800F9
:1006D400F550250AD8A471EF03F073EF03F0FEEF91
:1006E40003F02E50D96EDA6ADF2A000E666E000E11
:1006F400656E65C06DF00001B869B969000E346EAD
:100704009EEF03F06D822E50D96EDA6ADF2A9EEFD7
:1007140003F0010E346E9EEF03F02E50D96EDA6AA8
:10072400DFCFF6FF060EF76E0800F550300AD8B496
:1007340084EF03F08BEF03F03450D8B4A4EF03F04C
:10074400A6EF03F08FEF03F02EC013F02FC014F0C8
:1007540028EC07F013C065F014C066F066BEB7EF6E
:1007640003F0B5EF03F0BCEF03F06D80656C661E1B
:10077400D8B0662A2E50D96EDA6ADF50356E35C08D
:10078400F6FF060EF76E0800F550780AD8A4CDEFF0
:1007940003F0CFEF03F0F8EF03F02F50D96EDA6ACD
:1007A400020EDF26DF5CD96EDA6ADECF30F0DECFF0
:1007B40031F02E50D96EDA6A3528DF6EECEF03F093
:1007C4002DC021F030C022F031C023F0A3EC04F09E
:1007D4000FEF04F035C0F6FF060EF76E0800F55073
:1007E400780AD8B4E2EF03F0F8EF03F02E50D96E94
:1007F400DA6ADF2A0FEF04F02E50D96EDA6ADFCFFF
:10080400F6FF060EF76E0800F5500D6E0E6A2DC049
:100814000FF0D3EC06F0F8EF03F01200F29E9D887F
:100824009D8A948C948EB886B892AB88AB8EAC9823
:10083400AC84AC8AB8A621EF04F023EF04F02EEFC9
:1008440004F0ACA428EF04F02AEF04F02EEF04F037
:10085400040E2E6E62EF04F0B8A633EF04F035EF09
:1008640004F040EF04F0ACB43AEF04F03CEF04F0D1
:1008740040EF04F0100E2E6E62EF04F0B8B645EFB0
:1008840004F047EF04F050EF04F0ACA44CEF04F094
:100894004EEF04F050EF04F03CEF04F0B8B655EF1F
:1008A40004F057EF04F062EF04F0ACB45CEF04F032
:1008B4005EEF04F062EF04F0400E2E6E62EF04F07F
:1008C400ACA867EF04F069EF04F06BEF04F0400E9E
:1008D4002E6E000E196E2D0E1A6E310E1B6E010E49
:1008E4001C6E2E500D6E0E6A0F6A106A26C011F02F
:1008F40027C012F028C013F029C014F0CFEC08F080
:100904000DC01DF00EC01EF00FC01FF010C020F06F
:100914007BEC07F0FF0E19242A6EFF0E1A202B6EB3
:10092400FF0E1B202C6EFF0E1C202D6E2BC0B0FF63
:100934002AC0AFFFD08EF28C9F8A9D8A9D98F28E3A
:100944001200010E276E65C028F066C029F0000E63
:100954002C6E1F0E2B6E000E0001D96FE1EF04F018
:100964002B06D8A02C0622500F0B2A6E0A0E2A60E2
:10097400BEEF04F0C0EF04F0C4EF04F0300E2A26FA
:10098400C6EF04F0570E2A262B50BA0FD96EDA6A36
:100994002AC0DFFF000E276E2806D8A0290622C031
:1009A40024F023C025F0040E266ED890253224327C
:1009B400262ED7EF04F024C022F025C023F02CBE4D
:1009C400EDEF04F02C5009E1020E2B5CD8A0EDEF02
:1009D40004F0EFEF04F014EF05F022502310D8A434
:1009E400F6EF04F0F8EF04F0B2EF04F02750D8A4C7
:1009F400FEEF04F000EF05F0B2EF04F029BE0BEFB8
:100A040005F0295008E12804D8A00BEF05F00DEFFC
:100A140005F014EF05F06DB212EF05F014EF05F0D8
:100A2400B2EF04F021C01AF02B50BA0F1B6E28C08D
:100A34001CF029C01DF013EC08F01200000E956E96
:100A4400818281848196000E0001B76F000EB66F1B
:100A54006E50D8A430EF05F032EF05F03EEF05F00C
:100A6400780EB06FB0C00DF00D50D8A4060E0E6E07
:100A7400CDEC07F094EF05F08AEC09F00001B46FB7
:100A8400B45155EC0AF00001B16F8AEC09F0000191
:100A9400B46FB45155EC0AF00001B26FB251100DAD
:100AA400F350B125B56FB6C00DF0B7C00EF099EC98
:100AB40008F00001B551D8EC09F08BEC0AF0000104
:100AC400B36FB551B319D8B46AEF05F06CEF05F004
:100AD40080EF05F08192800E3A6E010E3B6EB5C038
:100AE4003CF03D6AB3C03EF03F6A71EC0AF0800E00
:100AF4000D6E0E6ACDEC07F094EF05F0B64BB72BF4
:100B0400080EB75DD8A089EF05F08BEF05F02AEF4A
:100B140005F08192800E3A6E480E3B6E71EC0AF03D
:100B240079EF05F01200010E0001A06F8182819619
:100B34008198000EA46F000EA36F6E50D8A4A5EF89
:100B440005F0A7EF05F0B3EF05F0870EA26FA2C082
:100B54000DF00D50D8A4060E0E6ECDEC07F007EF85
:100B640006F0A3C00DF0A4C00EF099EC08F08BECD5
:100B74000AF00001A16FA129D8B4C3EF05F0C5EFB5
:100B840005F0EFEF05F02B0E0D6E0D50D8A4060EF8
:100B94000E6ECDEC07F0800E3A6EA40E3B6EA3C031
:100BA4003CF0A4C03DF071EC0AF0800E0D6E0E6AAC
:100BB400CDEC07F0800E3A6EAE0E3B6EA1C03CF059
:100BC4003D6A71EC0AF0800E0D6E0E6ACDEC07F0F2
:100BD400000E0001A06FFAEF05F0A34BA42B080E42
:100BE400A45DD8A0F8EF05F0FAEF05F09FEF05F04B
:100BF4008192A051D8B401EF06F003EF06F007EF9D
:100C040006F0640EA26FA9EF05F01200000E5F6EED
:100C1400819881828196000E616E000E606E6E5026
:100C2400D8A417EF06F019EF06F025EF06F0960E9C
:100C34005D6E5DC00DF00D50D8A4060E0E6ECDECA9
:100C440007F073EF06F060C00DF061C00EF099EC90
:100C540008F08BEC0AF05E6E5F50D8A434EF06F017
:100C640036EF06F045EF06F04D0E3A6EB60E3B6ECB
:100C740060C03CF061C03DF071EC0AF04D0E0D6EA9
:100C84000E6ACDEC07F04D0E3A6EBD0E3B6E5EC0A3
:100C94003CF03D6A71EC0AF04D0E0D6E0E6ACDEC1F
:100CA40007F00F0E5F18D8A45AEF06F05CEF06F0B9
:100CB40063EF06F0000E5F6E0A0ED4EC0AF067EFE5
:100CC40006F0200ED4EC0AF05F2A604A612A080E6E
:100CD400615CD8A070EF06F072EF06F011EF06F039
:100CE40081921200000E266EC20E276E010E286E2F
:100CF400000E296E10EC04F01BEC0BF08480070E40
:100D0400636E580E626E5A0EE82EFED7622EFCD722
:100D1400632EFAD7849084928494070E636E580EDF
:100D2400626E5A0EE82EFED7622EFCD7632EFAD7D7
:100D34006E50D8B4A0EF06F0A2EF06F080EF06F0F4
:100D440084828AEC09F08AEC09F0646E310E64182E
:100D5400D8A4AFEF06F0B1EF06F0B5EF06F008EC5B
:100D640006F0CDEF06F0320E6418D8A4BCEF06F0FE
:100D7400BEEF06F0C2EF06F020EC05F0CDEF06F072
:100D8400330E6418D8A4C9EF06F0CBEF06F0CDEF0C
:100D940006F095EC05F0A4EC0AF080EF06F007EFFE
:100DA40000F00F50D8B4D9EF06F0DBEF06F0E3EF14
:100DB40006F00F50D8A4E1EF06F0E3EF06F0E8EFF9
:100DC40006F00D5053EC0BF027EF07F00F50D96EDF
:100DD400DA6A0A0ED926DE50DE10D8B4F4EF06F033
:100DE400F6EF06F00FEF07F00F50D96EDA6A0A0E2D
:100DF400D9260F50E16EE26A030EE126DE50E65C6E
:100E0400E650800A146EDE50800A1458D8B00DEFF4
:100E140007F00FEF07F027EF07F00F50D96EDA6AEB
:100E2400030ED926DF50106E0F50D96EDA6ADF50E8
:100E34001024D96EDA6A0DC0DFFF0F50D96EDA6A5A
:100E4400030ED926DE2A000EDD221200000E176ED4
:100E5400000E166E1350D96EDA6ADFCFF6FF060E57
:100E6400F76E0800F5502A0AD8A43BEF07F03DEFCF
:100E740007F063EF07F01350D96EDA6ADF2A1450D3
:100E8400D96EDA6A020EDF26DF5CD96EDA6ADECF4B
:100E940016F0DECF17F076EF07F016C00DF017C08E
:100EA4000EF0000E106E0A0E0F6E30EC0BF01550A3
:100EB4000D24166E000E0E20176E1350D96EDA6ACA
:100EC400DF2A1350D96EDA6ADFCFF6FF060EF76E0B
:100ED4000800F550D00F156E090E156474EF07F075
:100EE40076EF07F04FEF07F016C013F017C014F0B9
:100EF4001200000E216E000E226E000E236E000EF4
:100F0400246E1D501E101F102010D8B48CEF07F053
:100F14008EEF07F0C4EF07F0010E256E98EF07F08F
:100F2400D8901D361E361F362036252A20AE9DEF5A
:100F340007F09FEF07F092EF07F0D89021362236A2
:100F4400233624361D50195C1E501A581F501B5846
:100F540020501C58D8A0B1EF07F0B3EF07F0BCEF56
:100F640007F01D50195E1E501A5A1F501B5A20506C
:100F74001C5A2180D89020321F321E321D32252E59
:100F84009FEF07F021C019F022C01AF023C01BF014
:100F940024C01CF01200D0EF07F000009EA8D5EF8B
:100FA40007F0D7EF07F0CFEF07F00DC00FF00EC03A
:100FB40010F0FAEF07F00FC0F6FF10C0F7FFF86A61
:100FC400050EF76403D00800F55005D0F6CFE1FF15
:100FD400F7CFE2FFE750AD6E0F4A102AF3EF07F0A8
:100FE4000000ACA2F8EF07F0FAEF07F0F2EF07F019
:100FF4000FC0F6FF10C0F7FFF86A050EF76403D0C0
:101004000800F55005D0F6CFE1FFF7CFE2FFE75037
:101014000009D8A410EF08F012EF08F0DDEF07F094
:1010240012006DA018EF08F01AEF08F020EF08F096
:101034001BC015F01AC016F01BEC0AF01DBE27EFFA
:1010440008F025EF08F02BEF08F0000E1D6E000EDF
:101054001C6E000E206E000E1F6E3BEF08F0000E9B
:101064000E6E200E0D6E1AC00FF0D3EC06F01F4A60
:10107400202A1C501F5C2050800A1E6E1D50800ABE
:101084001E58D8A048EF08F04AEF08F031EF08F0F6
:101094006DB04FEF08F051EF08F057EF08F01BC0A8
:1010A40015F01AC016F01BEC0AF012000600D9CF96
:1010B40007F0DACF08F0000E0C6EF29E9D9A0C0E2B
:1010C400016E62EC09F00B6E0B50D8B46CEF08F0B3
:1010D4006EEF08F091EF08F00C5004EC09F0B1EC5D
:1010E40009F003C009F004C00AF043EC0BF0240A31
:1010F400D8A47FEF08F081EF08F091EF08F00ABE62
:101104008DEF08F00A5009E1020E095CD8A08DEFBA
:1011140008F08FEF08F091EF08F0010E6E6E9D8AD3
:10112400F28E08C0DAFF07C0D9FF71921100000ED9
:10113400956E0E50106E0DC083FF10C00FF0010E9F
:101144000F1682500F18FE0B0F18826E10C00FF08E
:10115400D8900F32010E0F160F4682500F18FD0B58
:101164000F18826E10C00FF0D8900F32D8900F3243
:10117400010E0F160F460F4682500F18FB0B0F1867
:10118400826E00D000D00000818000D000D000002A
:10119400819000D000D000001200000E156E000EE9
:1011A400166E000E176E000E186E0DA0DCEF08F020
:1011B400DEEF08F0E6EF08F0115015261250162263
:1011C4001350172214501822D890113612361336A1
:1011D4001436D89010320F320E320D320D500E10DC
:1011E4000F101010D8A4F9EF08F0FBEF08F0D7EFB8
:1011F40008F015C00DF016C00EF017C00FF018C09F
:1012040010F01200056E6FC001F070C002F0ECEC3B
:101214000AF001C003F002C004F003C001F004C0EE
:1012240002F0ECEC0AF06B50011807E16C50021864
:10123400D8A41FEF09F021EF09F024EF09F09684F8
:1012440021EF09F06FC001F070C002F0ECEC0AF07D
:1012540001C06FF002C070F0DA0E6F24D96E000E78
:101264007020DA6E05C0DFFF694A6A2A1200A40EF4
:10127400F66E160EF76E000EF86E0900F5CF6FF0DD
:101284000900F5CF70F000EEDAF014EE00F0EE6A2B
:10129400E550E150FCE1E250FAE100EEB8F0220E34
:1012A400EE6AE806FDE100EE65F00A0EEE6AE80675
:1012B400FDE171907192000EF86E000174EF06F07A
:1012C400000E026EABA469EF09F06BEF09F06EEF4C
:1012D40009F0AE5088EF09F0ABA273EF09F075EF97
:1012E40009F079EF09F0AB98AB8888EF09F09EAA72
:1012F4007EEF09F080EF09F088EF09F00150D96E14
:10130400DA6AAE507F0BDF6E010E026E02501200DD
:10131400F29E9D9A04EC0BF00009D8B494EF09F006
:1013240096EF09F099EF09F0968496EF09F0DA0E3A
:101334006B24D96E000E6C20DA6EDF500F6E6BC01A
:101344000DF06CC00EF0BCEC0AF00DC06BF00EC0DA
:101354006CF0674A682AF28E9D8A0F5012006FC0A3
:1013640001F070C002F0ECEC0AF06B50015C056E09
:101374006C500258066E06BEC9EF09F0F10E055C0A
:10138400030E0658D8A0C9EF09F0CBEF09F0D0EF4F
:1013940009F0010E4BEC0BF0D3EF09F0000E4BEC0F
:1013A4000BF005C003F006C004F012000F6E100E1F
:1013B400E82EFED700D00FC083FF100EE82EFED714
:1013C40000D0818800D000D000008186020E0E6E0D
:1013D400450E0D6EAA0EE82EFED70D2EFCD70E2E4E
:1013E400FAD7819600D000D00000819800D000D0B8
:1013F4000000120037C039F008EF0AF036C02DF0B3
:10140400390E2E6E38C02FF062EC03F039C0F6FFAF
:10141400060EF76E0800F5500009D8A414EF0AF080
:1014240016EF0AF000EF0AF0000E376E000E366E6B
:101434001200000E196E000E186E2AEF0AF017C083
:101444000DF00E6A16C00FF0D3EC06F0184A192AF4
:1014540015501824D96EDA6ADF50176E1750D8A4C5
:1014640036EF0AF038EF0AF021EF0AF012000DC04F
:1014740013F00EC014F047EF0AF013C0D9FF14C0E4
:10148400DAFF0FC0DFFF134A142A1106D8A0120690
:10149400112806E11228D8A452EF0AF054EF0AF0FA
:1014A4003FEF0AF012000D6E600E0D645CEF0AF05F
:1014B4005EEF0AF062EF0AF00D50A90F70EF0AF028
:1014C400400E0D6468EF0AF06AEF0AF06EEF0AF05E
:1014D4000D50C90F70EF0AF00D50D00F12003C0EE2
:1014E400406E3AC041F0000E456E000E446E000E90
:1014F4004C6E000E4B6E410E366E3BC037F0400E04
:10150400386EFCEC09F03A504424D96EDA6ADF6A8A
:1015140012009568080EE82EFED700008194030E91
:10152400E82EFED7000083CF0DF0030EE82EFED781
:1015340000008184080EE82EFED70000000E956E90
:101544000D501200DA0E0D6E000E0E6E000E106EAF
:10155400000E0F6E040E126E000E116E39EC0AF0BE
:10156400000E6C6E000E6B6E030E706E6F68000ED4
:101574006E6E12000D2807E1030E0E18D8A4C5EFF5
:101584000AF0C7EF0AF0CDEF0AF0000E0E6E000E5F
:101594000D6ED3EF0AF0010E0D240D6E000E0E2019
:1015A4000E6E12000D6ED8EF0AF000009EA8DDEF5B
:1015B4000AF0DFEF0AF0D7EF0AF00DC0ADFFE4EF59
:1015C4000AF00000ACA2E9EF0AF0EBEF0AF0E3EF57
:1015D4000AF01200012807E1030E0218D8A4F5EF5F
:1015E4000AF0F7EF0AF0FDEF0AF0000E026E000EAB
:1015F400016E03EF0BF0010E0124016E000E0220B8
:10160400026E12006FC00DF070C00EF0BCEC0AF058
:101614006B500D1807E16C500E18D8A414EF0BF0A2
:1016240016EF0BF019EF0BF0010E1AEF0BF0000E92
:101634001200C2900F0EC16E96909692969484906A
:1016440084928494929492868094000E956EC00E37
:10165400946E000E936E8196819812000D500F02C5
:10166400F3CF11F0F4CF12F00D501002F350122604
:101674000E500F02F350122611C00DF012C00EF0DE
:101684001200DA0E6B24D96E000E6C20DA6EDF5075
:101694001200016E01B002D0809401D08084120047
:0416A400FF0312002E
:020000040030CA
:0E000000FF02191EFF8181FF0FC00FE00F40AD
:00000001FF
