:0400000080314128E2
:100008007E1480310030860000308700FD018B139C
:10001800210091127D30F0008C31D4248031FC0015
:100028007C080319182819283C287D0885313425AF
:1000380080318E311A2680317308FB007208FA006D
:100048008731F0278031243A031D2B282C283C289F
:100058007B08803AF90080307902031D3528023088
:100068007A02031C382839283C2801302100CE00A8
:10007800210091168B177E10090080314328CB3060
:1000880084008B30850021001200CF001200D000C0
:100098001200D1001200D2001200D300F030840008
:1000A800233085000030FE000430FF008B31D82358
:1000B8008031C5308400003085000A30FE000030F1
:1000C800FF008B31D8238031203084000130850037
:1000D8002030FE000030FF008B31D82380317E10A5
:1000E80020008231D92A2000480886008701403F35
:1000F800CA00413FCB004A0884004B088500120023
:10010800253A031D882889285E2948088600870122
:100118000130810741310318810A2100C501C60158
:100128000030CB00FF30C700FF30C8002000CE01F0
:10013800BC282100CB142000480886008701013024
:10014800810741310318810ABC280130CE00BC2840
:10015800480886008701403FCA00413FCB004A0853
:1001680084004B0885000008303A03199D28A92807
:100178004E080319C028C128AC284808A600490819
:10018800A700863186268031200027082100C60076
:10019800200026082100C500C61FD328D428DA2845
:1001A8004B14C509C609C50A0319C60A2000480820
:1001B80086008701403FD300413FD40053088400A4
:1001C800540885001200643A0319EB28EC28F62835
:1001D80053088400540885001200693A031DF52865
:1001E800F6281B2949088600870101088400850133
:1001F80002308107003FCF00013FD0005308013E85
:10020800CA000030543DCB004808860087014A08E0
:10021800C03F4B08C13F4708BA004608B90050081C
:10022800BC004F08BB0081317921803178295308FF
:100238008400540885001200783A031D24292529D2
:100248005429490886008701010884008501023085
:100258008107003FCF00013FD0005308013ECA008C
:100268000030543DCB004808860087014A08C03F4B
:100278004B08C13F4B294708BA004608B900500847
:10028800BC004F08BB008531AC2580317829530864
:100298008400540885000008783A03193F29542936
:1002A8002000480886008701013081074131031882
:1002B800810A7829480886008701403FCA00413FE3
:1002C800CB004A0884004B0885000008CC00CD010B
:1002D8004C08A0004D08A1004708A3004608A2004A
:1002E8008731972780315429080001302000C00049
:1002F800BC1B7F298129013082290030C3002100DD
:1003080046082000C200210045082000C10043081B
:1003180003198F299029A429FF30C107FF30C23D56
:100328004308031D982999299E292B30BE000030C7
:10033800BF00A2292D30BE000030BF003E08C30018
:100348001F30C4000030C5002200BF01E129FF3082
:100358002000C407FF30C53D4408203E8600013018
:1003680087000A30A0000030A1003C08A3003B0829
:10037800A2008F315B27813120002108A7002008C7
:10038800A6008B31F623813120002608303E8100FB
:10039800C001FF30C107FF30C23D0A30A000003065
:1003A800A1003C08A3003B08A2008631E226813167
:1003B80020002108BC002008BB0020004508803A26
:1003C800BD0080303D02031DEB2901304402031CAF
:1003D800EE29EF290D2A20003B083C04031DF529CE
:1003E800F629AB294008031DFA29FB29AB29420845
:1003F800803ABD0080303D02031D042A01304102CD
:10040800031C072A082A0D2A2100CB180C2A0D2ABA
:10041800AB29200043080319122A132A1E2AFF3089
:10042800C407FF30C53D4408203E860001308700E0
:10043800430881003A08B2003908B1004408203E58
:10044800B3004208B5004108B4008E31C526813199
:1004580008008B132100111691160E178E17230012
:100468009F159F101D169D171E121E159E16200003
:100478003C083B043A0439040319432A442AD32A82
:1004880023009F1D482A492A512A1E1D4C2A4D2AFD
:10049800512A04302000C500712A9F1D542A552A6C
:1004A8005D2A1E19582A592A5D2A10302000C500D5
:1004B800712A9F19602A612A662A1E1D642A652AE4
:1004C800662A592A9F19692A6A2A712A1E196D2AC9
:1004D8006E2A712A40302000C50023001E1E752A8E
:1004E800762A792A40302000C50020004508BD0042
:1004F800BE01BF01C0014008A3003F08A2003E089A
:10050800A1003D08A0003C08A7003B08A6003A0847
:10051800A5003908A4008D31E62582312000230882
:10052800AF002208AE002108AD002008AC00013061
:10053800B3003130B2002D30B1000030B000873147
:100548003E278231FF3020002C07C100FF302D3DAF
:10055800C200FF302E3DC300FF302F3DC4004108CC
:10056800BD004208BE004308BF004408C000083070
:10057800C036BF0CBE0CBD0C890BBC2A3D0823003D
:100588009C00FF3020004105BD0000304205BE0040
:100598003D0823009B0020003E0823009C000B1709
:1005A8002100911611128B17080000302000BC00A2
:1005B8000030BB000030BA000030B90082312D2273
:1005C80082318D31872582318D3137258231210065
:1005D80091168B1721004E080319F32AF42A762B5B
:1005E8002200101090148F31AD2782318F31AD2742
:1005F80082312100C40031304406031D042B052B31
:10060800092B84311A248231722B32304406031D9F
:100618000E2B0F2B132B8431AF248231722B3330E6
:100628004406031D182B192B1D2B8331802382317F
:10063800722B55304406031D222B232B2C2B4930BB
:100648002000A0009030A1008D315D258231722BF1
:1006580035304406031D312B322B362B8E3189263B
:100668008231722B34304406031D3B2B3C2B632B09
:1006780005305306031D412B422B4A2B7E302000A8
:10068800A0009030A1008D315D2582310630210017
:100698005306031D502B512B5A2B83302000A000EA
:1006A8009030A1008D315D258231722B7830200089
:1006B800A0009030A1008D315D258231722B393038
:1006C8004406031D682B692B6B2B0100722B3930F4
:1006D8004406031D702B712B722B01008C314624AC
:1006E8008231792B2200101490101030890B7A2B4C
:1006F8000032EE2A8031412801302100C00022005A
:100708000D128D148D112100C201C301FF2B4E085B
:10071800031D8F2B902B992B2C302000A00090309C
:10072800A1008D315D258331192C06305306031D38
:100738009E2B9F2BA32B22008D128C140D162100AB
:1007480043082000A100210042082000A0008E31AB
:10075800502683318D31B32583312100C100220019
:100768008C102100410A0319BA2BBB2BFB2B00303C
:100778002000A0009030A1008D315D258331A0308C
:100788002000DD005630DE009030DF0021004308F5
:100798002000E100210042082000E0008C31B6244E
:1007A8008331A0302000A0000030A1008D315D25EC
:1007B8008331A0302000DD006930DE009030DF009A
:1007C800210041082000EE00EF016E08E0006F08EC
:1007D800E1008C31B6248331A0302000A000003025
:1007E800A1008D315D2583312100C001092C013024
:1007F800C2070030C33D50084302031D052C4F08B3
:100808004202031C082C092C8B2B22008D1021007E
:1008180040080319102C112C192C91302000A0002D
:100828009030A1008D315D25833108002100B10190
:1008380022000D128D148D112100B201B301A22CDA
:100848004E08031D282C292C322C3B302000A000F8
:100858009030A1008D315D258431AE2C06305306D1
:10086800031D372C382C3C2C22008D128C140D16AD
:10087800210033082000A100210032082000A00038
:100888008E31502684318D31B32584312100B0005A
:1008980022008C1021003108031D532C542C6E2C7F
:1008A800A0302000DD007130DE009030DF00210034
:1008B80033082000E100210032082000E0008C31DC
:1008C800B6248431A0302000A0000030A1008D3172
:1008D8005D258431A0302000DD008830DE009030B6
:1008E800DF00210030082000EE00EF016E08E00074
:1008F8006F08E1008C31B6248431A0302000A000BC
:100908000030A1008D315D2584310F302100310682
:10091800031D8F2C902C962CB1010A308C311B248E
:1009280084319D2C20308C311B24843101302100EE
:10093800B10701302100B2070030B33D500833023F
:10094800031DA82C4F083202031CAB2CAC2C242C02
:1009580022008D10080001302100CC008F010330E7
:100968002000A6008A30A5005530890BB92CA50BAC
:10097800B92CA60BB92C003222008D140D158D113F
:10098800063021005306031DCA2CCB2CCD2C220087
:100998008C142000AA01AB01102D21004E08031D64
:1009A800D62CD72CE02C1D302000A0009030A100C0
:1009B8008D315D258431332D8F31AD278431200071
:1009C800AC002C088C312F2484312000A7008F31F3
:1009D800AD2784312000AC002C088C312F248431C1
:1009E8002000A8002708A5000430A535890BF92C9C
:1009F80025082807A9002B08A1002A08A0008E3185
:100A0800502684312000290886312226843101307D
:100A18002000AA070030AB3D2100500820002B021F
:100A2800031D1A2D21004F0820002A02031C1D2D2A
:100A38001E2DD12C063021005306031D242D252DF3
:100A4800272D22008C1022008D102100CC0191301E
:100A58002000A0009030A1008D315D258431080070
:100A6800F80021005208F1005108F0008B31E4230E
:100A78008531210049087002F4004A08713BF500ED
:100A88007508803AF20083307202031D4D2DE13063
:100A98007402031C502D512D562D01308B31D0235B
:100AA80085315A2D00308B31D023853121005208F1
:100AB800F1005108F0008B31E42385317108F7000B
:100AC8007008F6007708F1007608F0008B31E4230F
:100AD800853121004A087106031D742D49087006E6
:100AE800031D772D782D932D220010150330F30068
:100AF8008A30F2005630890B7F2DF20B7F2DF30BD5
:100B08007F2D220010110330F3008A30F200563096
:100B1800890B8C2DF20B8C2DF30B8C2DAB2D5208E1
:100B2800F1005108F0008B31E42385317108210070
:100B3800D2007008D100F030F2002330F3005108E1
:100B4800720786005208733D870078088100080004
:100B580001302000BE00210046082000C00021000E
:100B680045082000BF001F30C2000030C30022002B
:100B7800BF01E62DFF302000C207FF30C33D3B0810
:100B88000F39C1000A3041020318CB2DCC2DCF2DCF
:100B98003030C107D12D5730C1074208203E8600AA
:100BA8000130870041088100BE01FF30BF07FF30D8
:100BB800C03D3B0E0F39BB003C0EF039BB043C0E68
:100BC8000F39BC0020004308803ABD0080303D0248
:100BD800031DF02D02304202031CF32DF42D122EBA
:100BE80020003B083C04031DFA2DFB2DBE2D3E08BA
:100BF800031DFF2D002EBE2D4008803ABD00803019
:100C08003D02031D092E01303F02031C0C2E0D2E40
:100C1800122E2100CB18112E122EBE2D20003A08BC
:100C2800B2003908B1004208203EB3004008B500C0
:100C38003F08B4008E31C526853108002000A20087
:100C48001030890B252E00322000220822008F0048
:100C5800053021005306031D322E332E582E103036
:100C6800890B342E003222000D160330890B3A2EE0
:100C7800000022008D1502302000A1004530A000A0
:100C8800A930890B452EA00B452EA10B452E00320D
:100C980022008D110330890B4F2E000022000D1207
:100CA800003200320000852E06305306031D5D2EEB
:100CB8005E2E852E0330890B5F2E000022000D1258
:100CC8002130890B652E000022008D150C1602308C
:100CD8002000A1004530A000A930890B712EA00B7F
:100CE800712EA10B712E003222000C128D112130B1
:100CF800890B7C2E00000330890B802E0000220017
:100D08000D1608002000AC01AD01260886008701F9
:100D1800403FA800413FA900280884002908850011
:100D280012002A3A031D992E9A2EC92E26088600EB
:100D380087010130810741310318810A270886009D
:100D4800870101088400850102308107003FAC005B
:100D5800013FAD00DD2E2D08A1002C08A0000A30AF
:100D6800A2000030A3008C31F324863120002B0828
:100D78002007AC000030213DAD0026088600870121
:100D88000130810741310318810A2608860087014E
:100D9800403FA800413FA900280884002908850091
:100DA8000008D03EAB000A302B02031CDC2EDD2EDF
:100DB800AF2E2D08A7002C08A60008002000A501CA
:100DC800A11FE72EE82EEF2EA009A109A00A0319FA
:100DD800A10A0130A500A31FF22EF32EFA2EA209B4
:100DE800A309A20A0319A30A0130A506A601A701AF
:100DF800200821040319012F022F2F2F0130A400EE
:100E08000C2F0130A035A10D890B062F0130A40746
:100E1800A11F0F2F102F052F0130A635A70D890B05
:100E2800112F21082302031D1B2F20082202031C57
:100E38001E2F1F2F242F2008A2022108A33B2614AF
:100E48000130A136A00C890B252F0130A402031D07
:100E58002E2F2F2F102F25080319332F342F392F1A
:100E6800A609A709A60A0319A70A2708A1002608A0
:100E7800A000080000302000B7000030B6000030A5
:100E8800B5000030B4002F082E042D042C040319DB
:100E98004E2F4F2F8E2F0130B8005B2F0130AC350D
:100EA800AD0DAE0DAF0D890B532F0130B807AF1F35
:100EB8005E2F5F2F522F0130B435B50DB60DB70D2B
:100EC800890B602F2F083302031D742F2E0832025E
:100ED800031D742F2D083102031D742F2C083002B6
:100EE800031C772F782F812F2C08B0022D08B13BD7
:100EF8002E08B23B2F08B33B34140130AF36AE0C8A
:100F0800AD0CAC0C890B822F0130B802031D8D2F5C
:100F18008E2F5F2F3708AF003608AE003508AD00BA
:100F28003408AC00080020002208230403199D2F70
:100F38009E2FA42F22082304031DA32FA42FA92F1B
:100F480020088731FD278731EF2F22088600870187
:100F58004931160001040319B22FB32FD12F2208EB
:100F6800860087014931403FA400413FA50022087F
:100F7800860087014231403FA600413FA70027086D
:100F8800803AA8002508803A2802031DCD2F24089E
:100F980026020318D02FD12FEF2F20002208860019
:100FA800870142312208840023088500003FA400FD
:100FB800013FA500403F24078400413F253D8500AF
:100FC800200880002208860087014231013081070D
:100FD80041310318810A0800F030F0002330F10095
:100FE80021004908700786004A08713D87000108FA
:040FF80008000800E5
:1017960000340434FF3403340534F000700C2000A8
:1017A600031C0C1103180C1508006400800101319C
:1017B6000130FE020030FF3B7F087E04031DD92B5B
:1017C6000034700A033003197106031DEB2BEC2B52
:1017D600EF2BF001F101F52B7008013EF00000300F
:1017E600713DF10008002000A71BFA2BFB2BFC2BF8
:1017F600072C2609A8002709A900A80A0319A90A7F
:101806002808A6002908A70008002000200A03309F
:1018160003192106031D102C112C142CA001A10163
:101826001A2C2008013EA0000030213DA10008002E
:101836002000A0001F2C00002000111E232C242CA9
:101846001E2C200823009A00292C000023009E1C31
:101856002D2C2E2C282C08002000A0006130200200
:10186600031C362C372C3A2C2008A93E452C413037
:101876002002031C3F2C402C432C2008C93E452C3B
:101886002008D03E0800F0302000A0002330A10040
:101896000030A200A3000030A4000430A5008C3163
:1018A6005E248C312100C901CA01FF30D10003300A
:1018B600D200CE01080020002108A7002008A600BB
:1018C6006E2C260886002708870022088100013032
:1018D600A6070030A73D0130A4020030A53B240A2C
:1018E600031D792C250A031D792C7A2C642C0800FB
:1018F600210052082000A100210051082000A0006C
:101906008C3108248C3121004A0820002106031D51
:10191600902C2100490820002006031D932C942CAE
:10192600962C0130972C0030080020005808DC0067
:101936005708DB00A92C5608C7005508C6005B30BF
:10194600C8005908C900803177208C3120005B0817
:1019560084005C0885001200031DB22CB32C9E2C5B
:10196600D501D601080060302000E2005D08E300E2
:10197600E401E501E601EC01ED016330D50000303C
:10198600D6005F08D8005E08D7006230D9008C31D7
:1019960098248C3120005D08650786008701810147
:1019A6000800F10123001D1DD92CDA2CDC2C1908A6
:1019B600F12C9D1CDF2CE02CE32C1D121D16F12CA6
:1019C6002000911EE72CE82CF12C70088600870178
:1019D600230019087F3981000130F10071080800E1
:1019E6002000A401A501201CF92CFA2CFE2C2208AB
:1019F600A4072308A53D0130A235A30D890BFF2CB2
:101A06000130A136A00C890B042D20082104031DEA
:101A16000D2D0E2DF62C2508A1002408A000080087
:101A26002000AF01B0012A2D2E08AC00AD012C0814
:101A3600A0002D08A1002B08A3002A08A2008731C8
:101A460097278D3101302000AF070030B03D2908BF
:101A56002F078600013087000108AE002E08031DFF
:101A6600352D362D172D08008F310D278D3120008D
:101A760021082100A900200020082100A800A0308C
:101A86002000DD008D30DE009030DF0021002908C7
:101A96002000E100210028082000E0008C31B62457
:101AA6008D31A0302000A0000030A1008D315D25D1
:101AB6008D3108005F2D00002000111E632D642D5E
:101AC6005E2D2108A4002008A3007C2D2308840095
:101AD60024088500000823009A0001302000A3078F
:101AE6000030A43D772D000023009E1C7B2D7C2D0D
:101AF600762D200023088400240885001200031D8B
:101B0600852D862D692D080021001D1023008C01CE
:101B16008D018E018F01900121001010901010117F
:101B2600200010109010101121000C108C100C11B8
:101B36008C150C128C1222000C108C100C110C122D
:101B460021008F0120008F01C03021008E008D0101
:101B560022000D108D100D158D110D168D12080019
:101B6600FF3021008F000830890BB72D00000530AB
:101B760021005306031DC02DC12DC72D22000D11B6
:101B8600003200320000CB2D5330890BC82D0000E7
:101B960020000F08A000053021005306031DD42D98
:101BA600D52DDB2D00320032000022000D15E12D6F
:101BB60022008D120830890BDE2D000021008F01D6
:101BC60020002008080000302000AB000030AA00EA
:101BD6000030A9000030A800201CF22DF32DFB2DAB
:101BE6002408A8072508A93D2608AA3D2708AB3DD5
:101BF6000130A435A50DA60DA70D890BFC2D0130CE
:101C0600A336A20CA10CA00C890B032E23082204D8
:101C160021042004031D102E112EEF2D2B08A300E6
:101C26002A08A2002908A1002808A000080021000F
:101C36005208F1005108F0008B31E4238E31210067
:101C460049087002F5004A08713BF6007608803AAA
:101C5600F40083307402031D322EE1307502031C3A
:101C6600352E362E3A2E01308B31D0238E31760822
:101C7600803AF40080307402031D432E2030750232
:101C86000318462E472E4B2E00308B31D0238E3133
:101C96007608F3007508F200080021008F01053070
:101CA6005306031D572E582E5A2E22000D152000BE
:101CB6002108A200200822008F002000220822000E
:101CC6008E000830890B652E000005302100530672
:101CD600031D6E2E6F2E7C2E22000D140330890BF1
:101CE600722E000022000D100330890B782E0000A2
:101CF600882E22008D122130890B7F2E00002200B3
:101D06008D162130890B852E000008008F31AD27F6
:101D16008E31D03E2100D30005305306031D942E8C
:101D2600952EA12E0030CF000830D00022000C10D6
:101D36008D1221000D1122000D15BC2E0630530602
:101D4600031DA62EA72EB32E0030CF000430D000E0
:101D560022000C148D1221000D1522000D11BC2E2F
:101D660060302000A0009030A1008D315D258E31BD
:101D7600C42E91302000A0009030A1008D315D2549
:101D86008E31080021004B1CC92ECA2ED42E2000ED
:101D96003308A9003208AB003108AA008D3113259B
:101DA6008E312000B51FD82ED92EDB2EB401B501F9
:101DB600B701B801EF2E20302000A0000030A100AE
:101DC6003208A3003108A200873197278E310130EF
:101DD6002000B7070030B83D3808803AB60035080D
:101DE600803A3602031DF92E34083702031CFC2EF6
:101DF600FD2EDE2E21004B18012F022F0C2F200066
:101E06003308A9003208AB003108AA008D3113252A
:101E16008E3108002100911223001F142000911E0C
:101E2600152F162F192F230019083D2F9014073050
:101E36002000A3005830A2005930890B202FA20B96
:101E4600202FA30B202F00322000901007302000F7
:101E5600A3005830A2005930890B2F2FA20B2F2F29
:101E6600A30B2F2F003223009F1F3A2F3B2F112F3A
:101E76009F13112F1C082000A200A3012208A30013
:101E8600A20123001B0820002204A50023001C0831
:101E960020002304A6002508A7002608A800901005
:101EA6002100911620002808A1002708A00008009C
:101EB6002000A501A31F602F612F682FA209A30987
:101EC600A20A0319A30A0130A500A11F6B2F6C2FCC
:101ED600712FA009A109A00A0319A10A200821044B
:101EE6000319762F772F9E2F0130A400812F013002
:101EF600A035A10D890B7B2F0130A407A11F842FCC
:101F0600852F7A2F21082302031D8B2F20082202FA
:101F1600031C8E2F8F2F932F2008A2022108A33B8C
:101F26000130A136A00C890B942F0130A402031DA9
:101F36009D2F9E2F852F25080319A22FA32FA82F8B
:101F4600A209A309A20A0319A30A2308A1002208C9
:101F5600A0000800CC2F2200101403302000A3009C
:101F66008A30A2005530890BB62FA20BB62FA30BD1
:101F7600B62F00322200101003302000A3008A3052
:101F8600A2005530890BC52FA20BC52FA30BC52F59
:101F960000328C317B248F31003A031DD32FD42F8E
:101FA600AE2F8B1321009112F0302000A2002330B7
:101FB600A3002100490820002207860021004A08C4
:101FC6002000233D87000108A40021004A082000C4
:101FD600A100210049082000A0008C3108248F317F
:101FE600200021082100CA00200020082100C90085
:101FF6008B1791162000240808004534723461348A
:1020060073346534203463346834653463346B3434
:1020160020346634613469346C3420346134743469
:102026002034613464346434723465347334733404
:1020360020340034573472346934743465342034AF
:10204600613462346F3472347434653464340A34FF
:10205600003443346834653463346B34203461347B
:1020660062346F3472347434653464340A34003440
:1020760052346534613464342034613462346F34EC
:1020860072347434653464340A34003441346C3444
:1020960072346534613464347934203469346E348E
:1020A600693474340034303478342534303434347C
:1020B600783420343D34203400346234613464345E
:1020C60020347434793470346534003430347834E0
:1020D60025343034323478340A34003425343034FC
:1020E600343478343A34203400344534523452345B
:1020F6004F345234003438343734353435340034C0
:1021060038343734343438340034253430343234C7
:1021160078340034253464340A3400344F344B3474
:02212600003483
:020000040001F9
:04000E00E239FF3E96
:00000001FF
