:1000000080314028003404347E1480312000A30164
:100010008B132100911223308C317F2480312000FA
:10002000A20022080319152816283B282308853129
:10003000802580318D31C525803173082000A100D5
:100040007208A0008B317D238031243A031D2928BA
:100050002A283B2820002108803AFB0080307B02C0
:10006000031D342802302002031C372838283B287F
:100070002100D601D60A210091168B177E100900A7
:10008000803142288B317A238031E3008B317B230E
:100090008031E4008B317C238031E5002100803108
:1000A00002208031D700803103208031D800F03029
:1000B0008400233085000030FE000430FF008B31C7
:1000C00089238031FC01FD012000E601E7012100C8
:1000D000D101D201D301D401D501D6012030840051
:1000E000013085002030FE000030FF008B31892375
:1000F00080317E1020008231342A2000D100460851
:1001000086008701403FC800413FC900480884007D
:10011000490885001200253A031D8F28902863297D
:100120004608860087010130810741310318810AA2
:100130002100D101D201031000300318013020004A
:10014000E600FF302100D300FF30D4002000CC01B6
:10015000C628E61446088600870101308107413130
:100160000318810AC628CC01CC0AC6284608860096
:100170008701403FC800413FC90048088400490842
:1001800085000008303A0319A928B3284C08031940
:10019000CA28CB28B6284708AA0046088631DC269C
:1001A000803120002B082100D20020002A082100E5
:1001B000D100D21FDC28DD28E528200066142100AC
:1001C000D109D209D10A0319D20A200046088600B3
:1001D0008701403FD200413FD300520884005308BA
:1001E00085001200643A0319F628F72801295208FD
:1001F0008400530885001200693A031D0029012973
:100200002329470886008701010884008501023000
:100210008107003FCD00013FCE005208013EC800DB
:100220000030533DC9004608860087014808C03F9A
:100230004908C13F4E08BB004D08BA005108823141
:10024000E62280317B295208840053088500120081
:10025000783A031D2C292D29592947088600870142
:1002600001088400850102308107003FCD00013F75
:10027000CE005208013EC8000030533DC900460878
:10028000860087014808C03F4908C13F50294E08F1
:10029000BB004D08BA0051088531FB2580317B2910
:1002A00052088400530885000008783A031947294A
:1002B0005929200046088600870101308107413115
:1002C0000318810A7B29460886008701403FC80041
:1002D000413FC90048088400490885000008CA0059
:1002E000CB014A08A4004B08A5005108A6008F3195
:1002F0005A278031592908002100D501D50A8F01DC
:1003000006302000AA001330A900AD30890B8629E1
:10031000A90B8629AA0B862900328E3173268131DA
:100320002000B60036088B31F72381312000AF0062
:100330008E31732681312000B60036088B31F723C9
:1003400081312000B0003008A900AA012F08AB00BD
:10035000AC01AB0EAC0EF030AC052B080F39AC0481
:10036000F030AB0529082B07AD002A082C3DAE0064
:1003700022008D140D158D1106302000650603191D
:10038000C229C329C92907306506031DC829C929FF
:10039000CB2922008C142000B401B5010F2A2100C2
:1003A0005608031DD429D529DE291D302000A400BC
:1003B0009030A5008D3109258131332A8E31732685
:1003C00081312000B60036088B31F72381312000BF
:1003D000B1008E31732681312000B60036088B3192
:1003E000F72381312000B2003108A9000330A9357C
:1003F000FF3E031DF72929353207B3003508A50054
:100400003408A4008D31FA2581312000330886316B
:100410007226813101302000B4070030B53D2E082E
:100420003502031D152A2D083402031C182A192A27
:10043000CF290630650603191E2A1F2A252A0730F0
:100440006506031D242A252A272A22008C10220053
:100450008D102100D50196302000A4009030A50019
:100460008D3109258131080000302000C1000030A5
:10047000C0000030BF000030BE00833197238231BE
:100480008D31332582318C31E42482312100911663
:100490008B172100560803194E2A4F2ADC2A220006
:1004A000101090148E31732682318E317326823172
:1004B0002000E20031306206031D5F2A602A642AB0
:1004C0008431E3248231D82A32306206031D692A3E
:1004D0006A2A6E2A81317C218231D82A3330620621
:1004E000031D732A742A782A843144248231D82A3D
:1004F00055306206031D7D2A7E2A862A4930A400D3
:100500009030A5008D3109258231D82A3530620618
:10051000031D8B2A8C2A902A8F310A278231D82AF0
:1005200034306206031D952A962AC82A05306506CE
:10053000031D9B2A9C2AA42A7E30A4009030A5008B
:100540008D3109258231D82A06306506031DA92A76
:10055000AA2AB22A8330A4009030A5008D31092543
:100560008231D82A07306506031DB72AB82AC02A67
:100570008830A4009030A5008D3109258231D82A19
:100580007830A4009030A5008D3109258231D82A19
:1005900039306206031DCD2ACE2AD02A0100D82A7E
:1005A00039306206031DD52AD62AD82A0100D82A56
:1005B0008C310E248231DF2A22001014901010306A
:1005C000890BE02A0032492A803140282000BD00F2
:1005D000C001C00ABB1BED2AEF2A0130F02A00300F
:1005E000C300210052082000C20021005108200051
:1005F000C10043080319FD2AFE2A122BFF30C10750
:10060000FF30C23D4308031D062B072B0C2B2B305C
:10061000BE000030BF00102B2D30BE000030BF00E8
:100620003E08C3001F30C4000030C5002200BF01D7
:100630004E2BFF30C407FF30C53D4408203E8600E6
:10064000013087000A30A4000030A5003B08A70055
:100650003A08A6008F31AC27823120002508AC0073
:100660002408AB008B31A723823120002B08303EB9
:100670008100C001FF30C107FF30C23D0A30A40035
:100680000030A5003B08A7003A08A60087313C27A8
:10069000823120002508BB002408BA00200045084C
:1006A000803ABC0080303C02031D582B01304402CC
:1006B000031C5B2B5C2B7A2B20003A083B04031DA8
:1006C000622B632B192B4008031D672B682B192BFA
:1006D0004208803ABC0080303C02031D712B01307F
:1006E0004102031C742B752B7A2B2000E618792B02
:1006F0007A2B192B2000430803197F2B802B8B2B7F
:10070000FF30C407FF30C53D4408203E860001305D
:100710008700430881004408203EB3004208B5002A
:100720004108B4003D088E313426823108008B1315
:100730002100111691160E178E1723009F159F107A
:100740001D169D171E121E159E16200041084004FE
:100750003F043E040319AD2BAE2B3E2C23009F1DFE
:10076000B22BB32BBB2B1E1DB62BB72BBB2B0430D0
:100770002000CA00DC2B9F1DBE2BBF2BC72B1E19D0
:10078000C22BC32BC72B10302000CA00DC2B9F19B3
:10079000CA2BCB2BD02B1E1DCE2BCF2BD02BC32B5C
:1007A0009F19D32BD42BDC2B1E19D72BD82BDC2B4A
:1007B00040302000CA00DC2B23001E1EE02BE12B62
:1007C000E42B40302000CA0020004A08C200C301C8
:1007D000C401C5014508A7004408A6004308A500B8
:1007E0004208A4004108AB004008AA003F08A90045
:1007F0003E08A8008D319125833120002708B300E1
:100800002608B2002508B1002408B0000130B70066
:100810003130B6002D30B5000030B40087319C2750
:100820008331FF3020003007C600FF30313DC70064
:10083000FF30323DC800FF30333DC9004608C200DA
:100840004708C3004808C4004908C5000830C53639
:10085000C40CC30CC20C890B272C420823009C003B
:10086000FF3020004605C20000304705C3004208A3
:1008700023009B002000430823009C000B1721004D
:10088000911611128B1708002100CD01CD0A22000C
:100890000D128D148D112100CF01D001C82C5608E6
:1008A000031D532C542C5D2C2C302000A4009030C0
:1008B000A5008D3109258431E22C06302000650623
:1008C0000319632C642C6A2C07306506031D692C00
:1008D0006A2C6E2C22008D128C140D1621005008EB
:1008E0002000A50021004F082000A4008D31FA252A
:1008F00084318D315F2584312100CE0022008C109F
:1009000021004E0A0319852C862CC42C00302000AF
:10091000A4009030A5008D31092584315630200087
:10092000DB009030DC00210050082000DE002100B8
:100930004F082000DD00AD308C3160248431AD30B3
:100940002000A4000030A5008D31092584316930D4
:100950002000DB009030DC0021004E082000E00089
:10096000E1016008DD006108DE00AD308C316024FB
:100970008431AD302000A4000030A5008D31092560
:1009800084312100CD01D22C0130CF070030D03D81
:1009900058085002031DCE2C57084F02031CD12CBF
:1009A000D22C4F2C22008D1021004D080319D92C78
:1009B000DA2CE22C96302000A4009030A5008D3176
:1009C0000925843108002100BE0122000D128D147A
:1009D0008D112100BF01C001732D5608031DF12C9C
:1009E000F22CFB2C3B302000A4009030A5008D3170
:1009F000092584317F2D0630200065060319012D5D
:100A0000022D082D07306506031D072D082D0C2D1E
:100A100022008D128C140D16210040082000A50024
:100A200021003F082000A4008D31FA2584318D314A
:100A30005F2584312100BD0022008C1021003E087A
:100A4000031D232D242D3D2D71302000DB0090301F
:100A5000DC00210040082000DE0021003F082000CB
:100A6000DD00AD308C3160248431AD302000A40035
:100A70000030A5008D31092584318D302000DB0048
:100A80009030DC0021003D082000E000E10160081A
:100A9000DD006108DE00AD308C3160248431AD3082
:100AA0002000A4000030A5008D31092584310F30CD
:100AB00021003E06031D5D2D5E2D642DBE010A3012
:100AC0008B31CC2384316E2D20308B31CC2384317B
:100AD00001302000E00060082100BE070130210045
:100AE000BF070030C03D58084002031D792D57084C
:100AF0003F02031C7C2D7D2DED2C22008D10080063
:100B0000FA0020006408F1006308F0008B3195239F
:100B100085317C087002F6007D08713BF70077088C
:100B2000803AF20083307202031D982DE130760284
:100B3000031C9B2D9C2DA12D01308731F72785317A
:100B4000A52D00308731F727853120006408F1009A
:100B50006308F0008B31952385317108F900700826
:100B6000F8007908F1007808F0008B319523853181
:100B70007D087106031DBE2D7C087006031DC12D66
:100B8000C22DDD2D220010150330F3008A30F20053
:100B90005630890BC92DF20BC92DF30BC92D22003C
:100BA00010110330F3008A30F2005630890BD62D35
:100BB000F20BD62DF30BD62DFA2D20006408F10090
:100BC0006308F0008B319523853171082000E40023
:100BD0007008E300F030F2002330F300630872077E
:100BE000F4006408733DF5007408860075088700FA
:100BF0007A08810008002000BD00BE01BE0A210065
:100C000052082000C000210051082000BF001F3002
:100C1000C2000030C3002200BF01392EFF30C207DE
:100C2000FF30C33D3A080F39C1000A3041020318B2
:100C30001A2E1B2E202E3030BC003C08C107242E5B
:100C40005730BC003C08C1074208203E86000130F6
:100C5000870041088100BE01FF30BF07FF30C03D63
:100C60003A0E0F39BA003B0EF039BA043B0E0F3979
:100C7000BB0020004308803ABC0080303C02031DCA
:100C8000432E02304202031C462E472E652E2000C2
:100C90003A083B04031D4D2E4E2E0E2E3E08031D1A
:100CA000522E532E0E2E4008803ABC0080303C025B
:100CB000031D5C2E01303F02031C5F2E602E652E4B
:100CC0002000E618642E652E0E2E20004208203EDD
:100CD000B3004008B5003F08B4003D088E3134260B
:100CE000853108002000A6001030890B752E0032D7
:100CF0002000260822008F00053020006506031D15
:100D0000822E832EA82E1030890B842E00322200D2
:100D10000D160330890B8A2E000022008D1502303B
:100D20002000A5004530A400A930890B952EA40B06
:100D3000952EA50B952E003222008D110330890BC4
:100D40009F2E000022000D12003200320000DB2E28
:100D5000063065060319AD2EAE2EB42E073065069B
:100D6000031DB32EB42EDB2E0330890BB52E0000ED
:100D700022000D122130890BBB2E000022008D15A0
:100D80000C1602302000A5004530A400A930890BC4
:100D9000C72EA40BC72EA50BC72E003222000C12A3
:100DA0008D112130890BD22E00000330890BD62EF5
:100DB000000022000D1608002000B200B001B101B1
:100DC000320886008701403FAC00413FAD002C084F
:100DD00084002D08850012002A3A031DF02EF12E02
:100DE000232F320886008701013081074131031823
:100DF000810A2A08860087010108840085010230E3
:100E00008107003FB000013FB100372F2F08AC0031
:100E1000AD013108A5003008A4000A30A60000305A
:100E2000A7008C319F24863120002C082407B000B5
:100E30002D08253DB1003208860087010130810769
:100E400041310318810A320886008701403FAC0017
:100E5000413FAD002C0884002D0885000008D03EDD
:100E6000AF000A302F02031C362F372F062F310810
:100E7000AB003008AA0008002000AA01A51F412FDE
:100E8000422F492FA409A509A40A0319A50AAA01FA
:100E9000AA0AA71F4C2F4D2F562FA609A709A60A4D
:100EA0000319A70A0130A8002808AA06AB01AC0163
:100EB0002408250403195D2F5E2F8D2FA901A90A8F
:100EC0006A2F0130A435A50D890B622F0130A800CF
:100ED0002808A907A51F6D2F6E2F612F0130AB3594
:100EE000AC0D890B6F2F25082702031D792F2408CD
:100EF0002602031C7C2F7D2F822F2408A6022508A2
:100F0000A73B2B140130A536A40C890B832F01308D
:100F1000A902031D8C2F8D2F6E2F2A080319912FE4
:100F2000922F972FAB09AC09AB0A0319AC0A2C0816
:100F3000A5002B08A400080000302000BC000030F1
:100F4000BB000030BA000030B9003308320431046D
:100F500030040319AC2FAD2FEE2FBD01BD0ABB2FFE
:100F60000130B035B10DB20DB30D890BB12F013089
:100F7000B8003808BD07B31FBE2FBF2FB02F0130F8
:100F8000B935BA0DBB0DBC0D890BC02F3308370224
:100F9000031DD42F32083602031DD42F3108350229
:100FA000031DD42F30083402031CD72FD82FE12F74
:100FB0003008B4023108B53B3208B63B3308B73BC2
:100FC00039140130B336B20CB10CB00C890BE22FDE
:100FD0000130BD02031DED2FEE2FBF2F3C08B300E3
:100FE0003B08B2003A08B1003908B0000800F00030
:100FF000700C2000031C0C1103180C1508000800CD
:1016F400FF3403340534F030F0002330F1007C086B
:10170400700786007D08713D8700010808006400A9
:10171400800101310130FE020030FF3B7F087E046E
:10172400031D8A2B0034700A033003197106031D4C
:101734009C2B9D2BA02BF001F101A62B7008013EE0
:10174400F0000030713DF10008002000AC1BAB2B11
:10175400AC2BAD2BB82B2B09AD002C09AE00AD0A78
:101764000319AE0A2D08AB002E08AC0008002000B7
:10177400240A033003192506031DC12BC22BC52BD4
:10178400A401A501CB2B2408013EA4000030253D73
:10179400A50008002000A400D02B00002000111E8A
:1017A400D42BD52BCF2B240823009A00DA2B00004E
:1017B40023009E1CDE2BDF2BD92B0800200064089D
:1017C400A5006308A4008B31B9238B317D08200068
:1017D4002506031DEF2B7C082406031DF22BF32B97
:1017E400F52B0130F62B003008002000A4006130F6
:1017F4002402031CFE2BFF2B022C2408A93E0D2CD3
:1018040041302402031C072C082C0B2C2408C93E4D
:101814000D2C2408D03E0800F0302000A400233012
:10182400A5000030A600A7000030A8000430A900DD
:101834008C3143248C31FC01FD01FF302000E30096
:101844000330E4002100D60108002000D800550828
:10185400DA005408D900362C5930C6005608C7009F
:10186400580880317D208C312000590884005A08A2
:1018740085001200031D3F2C402C2E2CD401D501D1
:10188400080020002508AB002408AA00532C2A08CD
:1018940086002B088700260881000130AA07003043
:1018A400AB3D0130A8020030A93B280A031D5E2C81
:1018B400290A031D5E2C5F2C492C08002100A1007D
:1018C4005D30A0002108A200A401A501AB01AC0178
:1018D40020005C08D5005B08D400A030D600A230FC
:1018E4008C3127248C312100240821072000DF00BB
:1018F4005F088600870181010800F000F1012300E0
:101904001D1D852C862C882C19089D2C9D1C8B2C28
:101914008C2C8F2C1D121D169D2C2000911E932C97
:10192400942C9D2C700886008701230019087F39A8
:101934008100F101F10A710808002000A801A90141
:10194400241CA52CA62CAA2C2608A8072708A93DE8
:101954000130A635A70D890BAB2C0130A536A40C9C
:10196400890BB02C24082504031DB92CBA2CA22CF5
:101974002908A5002808A40008002000B200B0012E
:10198400B101D52C2F08AD00AE012D08A4002E08FE
:10199400A5002C08A6008F315A278C310130200075
:1019A400B0070030B13D30083207AD002D08860085
:1019B400013087000108AF002F08031DE22CE32C3F
:1019C400C42C08008E31BC268C312000250821004F
:1019D400B600200024082100B50092302000DB006E
:1019E4009030DC00210036082000DE00210035089C
:1019F4002000DD00AD308C3160248C31AD3020000E
:101A0400A4000030A5008D3109258C3108000B2D70
:101A140000002000111E0F2D102D0A2D2508A800EE
:101A24002408A700282D270884002808850000081A
:101A340023009A0001302000A7070030A83D232D81
:101A4400000023009E1C272D282D222D200027086E
:101A54008400280885001200031D312D322D152D18
:101A6400080021001D1023008C018D018E018F01BF
:101A740090012100101090101011200010109010EF
:101A8400101121000C108C100C118C150C128C12DE
:101A940022000C108C100C110C1221008F0120005C
:101AA4008F01C03021008E008D0122000D108D1099
:101AB4000D158D110D168D120800FF3021008F00B9
:101AC4000830890B632D0000053020006506031DD6
:101AD4006C2D6D2D732D22000D110032003200008B
:101AE400772D5330890B742D000020000F08A400BB
:101AF40005306506031D7F2D802D862D00320032B2
:101B0400000022000D158C2D22008D120830890B47
:101B1400892D000021008F012000240808000030D6
:101B24002000AF000030AE000030AD000030AC004B
:101B3400241C9D2D9E2DA62D2808AC072908AD3DFB
:101B44002A08AE3D2B08AF3D0130A835A90DAA0DDA
:101B5400AB0D890BA72D0130A736A60CA50CA40C40
:101B6400890BAE2D2708260425042404031DBB2D50
:101B7400BC2D9A2D2F08A7002E08A6002D08A5001D
:101B84002C08A400080020006408F1006308F00099
:101B94008B3195238D317C087002F5007D08713BF3
:101BA400F6007608803AF40083307402031DDC2DBD
:101BB400E1307502031CDF2DE02DE42D0130873167
:101BC400F7278D317608803AF40080307402031DC3
:101BD400ED2D203075020318F02DF12DF52D003078
:101BE4008731F7278D317608F3007508F200080075
:101BF40021008F01053020006506031D022E032EEF
:101C0400052E22000D1520002508A6002408220018
:101C14008F002000260822008E000830890B102E29
:101C24000000053020006506031D192E1A2E272EEC
:101C340022000D140330890B1D2E000022000D100C
:101C44000330890B232E0000332E22008D12213005
:101C5400890B2A2E000022008D162130890B302E8C
:101C6400000008002000B900661C392E3A2E402ED0
:101C74003908AC0033088C31BF248E312000B51FE5
:101C8400442E452E472EB401B501B701B801592E93
:101C940020302000A4000030A5003908A6008F31B0
:101CA4005A278E3101302000B7070030B83D38087C
:101CB400803AB6003508803A3602031D632E340894
:101CC4003702031C662E672E4A2E200066186B2EE0
:101CD4006C2E722E3908AC0033088C31BF248E313F
:101CE4000800922E2200101403302000A7008A302E
:101CF400A6005530890B7C2EA60B7C2EA70B7C2EC0
:101D040000322200101003302000A7008A30A60001
:101D14005530890B8B2EA60B8B2EA70B8B2E0032E6
:101D24008B31E0238E31003A031D992E9A2E742EA6
:101D34008B1321009112F0302000A6002330A7005D
:101D44007C08260786007D08273D87000108A80037
:101D54007D08A5007C08A4008B31B9238E312000B6
:101D64002508FD002408FC008B1721009116200093
:101D7400280808002100911223001F142000911E3E
:101D8400C42EC52EC82E23001908EC2E901407303B
:101D94002000A7005830A6005930890BCF2EA60B7F
:101DA400CF2EA70BCF2E003220009010073020003A
:101DB400A7005830A6005930890BDE2EA60BDE2E64
:101DC400A70BDE2E003223009F1FE92EEA2EC02E21
:101DD4009F13C02E1C082000A600A7012608A700F8
:101DE400A60123001B0820002604A90023001C08C8
:101DF40020002704AA002908AB002A08AC00901090
:101E04002100911620002C08A5002B08A40008002E
:101E14008E3173268F31D03E2000E50005306506F3
:101E2400031D152F162F232F00302100D700083053
:101E3400D80022000C108D1221000D1122000D1566
:101E4400512F06306506031D282F292F362F003009
:101E54002100D7000430D80022000C148D12210078
:101E64000D1522000D11512F07306506031D3B2F60
:101E74003C2F492F00302100D7000830D800220021
:101E84000C148D1221000D1522000D11512F6030FC
:101E9400A4009030A5008D3109258F31592F96303B
:101EA4002000A4009030A5008D3109258F31080051
:101EB4002000260803195F2F602F652F2608031DB5
:101EC400642F652F6A2F24088731FF278F31AB2FAA
:101ED4002608093E86008701160001040319732FA2
:101EE400742F922F2608093E86008701403FA700E1
:101EF400413FA8002608023E86008701403FA90012
:101F0400413FAA002A08803AAB002808803A2B02F5
:101F1400031D8E2F270829020318912F922FAB2F10
:101F240020002608860087012608023E84008501D9
:101F340000080107A70027088600870124088100FC
:101F44002608023E860087010130810741310318CB
:101F5400810A08002000AA01A71FB12FB22FB92FB0
:101F6400A609A709A60A0319A70AAA01AA0AA51F6E
:101F7400BC2FBD2FC22FA409A509A40A0319A50AC1
:101F8400240825040319C72FC82FF12FA901A90A72
:101F9400D42F0130A435A50D890BCC2F0130A80016
:101FA4002808A907A51FD72FD82FCB2F250827022C
:101FB400031DDE2F24082602031CE12FE22FE62F47
:101FC4002408A6022508A73B0130A536A40C890BDA
:101FD400E72F0130A902031DF02FF12FD82F2A0873
:101FE4000319F52FF62FFB2FA609A709A60A031933
:101FF400A70A2708A5002608A4000800453472345F
:102004006134733465342034633468346534633440
:102014006B3420346634613469346C342034613474
:102024007434203461346434643472346534733405
:10203400733420340034573472346934743465345E
:102044002034613462346F347234743465346434EB
:102054000A34003443346834653463346B342034D4
:10206400613462346F3472347434653464340A34E1
:10207400003452346534613464342034613462345D
:102084006F3472347434653464340A340034413443
:102094006C34723465346134643479342034693492
:1020A4006E34693474340034303478342534303444
:1020B4003434783420343D34203400346234613490
:1020C40064342034743479347034653400343034F6
:1020D400783425343034323478340A3400342534B6
:1020E4003034343478343A3420340034453452347F
:1020F40052344F3452340034383437343534353470
:1021040000343834373434343834003438343734E1
:1021140034343934003425343034323478340034AF
:0E212400253464340A3400344F344B34003414
:020000040001F9
:04000E00E239FF3E96
:00000001FF
