:020000040000FA
:0400000007EF00F016
:0A000800318298ED04F032EF05F0AC
:100600000066696E6973680A0000F29E9D889D8A83
:10061000948C948EB886AB88AB8EAC98AC84AC8A44
:10062000B8A615EF03F017EF03F022EF03F0ACA428
:100630001CEF03F01EEF03F022EF03F0040E2A6E0E
:1006400056EF03F0B8A627EF03F029EF03F034EFDD
:1006500003F0ACB42EEF03F030EF03F034EF03F00F
:10066000100E2A6E56EF03F0B8B639EF03F03BEFE9
:1006700003F044EF03F0ACA440EF03F042EF03F0CB
:1006800044EF03F030EF03F0B8B649EF03F04BEF5F
:1006900003F056EF03F0ACB450EF03F052EF03F069
:1006A00056EF03F0400E2A6E56EF03F0ACA85BEF56
:1006B00003F05DEF03F05FEF03F0400E2A6E000ED3
:1006C000156E2D0E166E310E176E010E186E2A5015
:1006D000096E0A6A0B6A0C6A22C00DF023C00EF084
:1006E00024C00FF025C010F0DFEC04F009C019F0B1
:1006F0000AC01AF00BC01BF00CC01CF0FCEC03F09D
:10070000FF0E1524266EFF0E1620276EFF0E1720F3
:10071000286EFF0E1820296E27C0B0FF26C0AFFF3D
:10072000D08EF28C9F8A9D8A9D98F28E1200000EC8
:10073000226EC20E236E010E246E000E256E05EC95
:1007400003F0929092928092809092849298809AF4
:10075000000E936E3F0E946E000E956E8080030E19
:100760002C6E8A0E2B6E560EE82EFED72B2EFCD743
:100770002C2EFAD780908092030E2C6E8A0E2B6E50
:10078000560EE82EFED72B2EFCD72C2EFAD72F5044
:10079000D8B4CDEF03F0CFEF03F0AEEF03F0300E9F
:1007A0002E18D8A4D6EF03F0D8EF03F0DCEF03F057
:1007B0003FEC05F0F4EF03F0310E2E18D8A4E3EF70
:1007C00003F0E5EF03F0E9EF03F04BEC05F0F4EF95
:1007D00003F0320E2E18D8A4F0EF03F0F2EF03F07E
:1007E000F4EF03F04AEC05F0000E306E000E2F6EB1
:1007F000AEEF03F007EF00F0000E1D6E000E1E6E50
:10080000000E1F6E000E206E19501A101B101C10C7
:10081000D8B40DEF04F00FEF04F045EF04F0010E33
:10082000216E19EF04F0D89019361A361B361C3693
:10083000212A1CAE1EEF04F020EF04F013EF04F0A9
:10084000D8901D361E361F3620361950155C1A50AA
:1008500016581B5017581C501858D8A032EF04F0E7
:1008600034EF04F03DEF04F01950155E1A50165A9B
:100870001B50175A1C50185A1D80D8901C321B321E
:100880001A321932212E20EF04F01DC015F01EC0BF
:1008900016F01FC017F020C018F01200F29E8088DA
:1008A00053EF04F000F09EA858EF04F05AEF04F064
:1008B00052EF04F05DEF04F000F080B462EF04F05A
:1008C00064EF04F05CEF04F009C00BF00AC00CF018
:1008D0007DEF04F00BC0F6FF0CC0F7FF0800F5CF6A
:1008E000ADFF0B4A0C2A76EF04F000F0ACA27BEFD0
:1008F00004F07DEF04F075EF04F00BC0F6FF0CC0C0
:10090000F7FF0800F5500009D8A489EF04F08BEF39
:1009100004F06AEF04F08EEF04F000F0ACA293EF65
:1009200004F095EF04F08DEF04F08098F28E120041
:100930000600D9CF05F0DACF06F0000E086EF29E61
:10094000080E016E000E026E14EC05F00850D8B4CB
:10095000ACEF04F0AEEF04F0D8EF04F080822D0E7F
:100960003024D96EDA6A000EDA2208C0DFFF302A9E
:10097000020E3018D8A4BFEF04F0C1EF04F0C5EFA9
:1009800004F0000E306ED8EF04F0240E2D18D8A419
:10099000CCEF04F0CEEF04F0D8EF04F03004D8A48C
:1009A000D4EF04F0D6EF04F0D8EF04F0010E2F6E70
:1009B000F28E06C0DAFF05C0D9FF31921100000E99
:1009C000116E000E126E000E136E000E146E09A052
:1009D000ECEF04F0EEEF04F0F6EF04F00D5011260A
:1009E0000E5012220F50132210501422D8900D36A0
:1009F0000E360F361036D8900C320B320A320932CE
:100A000009500A100B100C10D8A409EF05F00BEFD9
:100A100005F0E7EF04F011C009F012C00AF013C0AE
:100A20000BF014C00CF01200ABA419EF05F01BEF93
:100A300005F01EEF05F0AE5030EF05F0ABA223EF4E
:100A400005F025EF05F029EF05F0AB98AB8830EF06
:100A500005F0AE507F0B01C0D9FF02C0DAFFDF6E98
:100A6000000E1200306A2F6A2E6A2D6A3190319280
:100A7000000EF86E060EF76E000197EF03F0010E00
:100A80000D6E060E0E6E0DC009F00EC00AF04EEC93
:080A900004F012001200120034
:020000040020DA
:08000000FFFFFFFFFFFFFFFF00
:020000040030CA
:0E000000FF02191EFF8181FF0FC00FE00F40AD
:00000001FF
